{
  "_format": "hh-sol-artifact-1",
  "contractName": "NFT",
  "sourceName": "contracts/NFT.sol",
  "abi": [
    {
      "inputs": [
        {
          "internalType": "address",
          "name": "marketplaceAddress",
          "type": "address"
        }
      ],
      "stateMutability": "nonpayable",
      "type": "constructor"
    },
    {
      "anonymous": false,
      "inputs": [
        {
          "indexed": true,
          "internalType": "address",
          "name": "account",
          "type": "address"
        },
        {
          "indexed": true,
          "internalType": "address",
          "name": "operator",
          "type": "address"
        },
        {
          "indexed": false,
          "internalType": "bool",
          "name": "approved",
          "type": "bool"
        }
      ],
      "name": "ApprovalForAll",
      "type": "event"
    },
    {
      "anonymous": false,
      "inputs": [
        {
          "indexed": true,
          "internalType": "address",
          "name": "previousOwner",
          "type": "address"
        },
        {
          "indexed": true,
          "internalType": "address",
          "name": "newOwner",
          "type": "address"
        }
      ],
      "name": "OwnershipTransferred",
      "type": "event"
    },
    {
      "anonymous": false,
      "inputs": [
        {
          "indexed": true,
          "internalType": "address",
          "name": "operator",
          "type": "address"
        },
        {
          "indexed": true,
          "internalType": "address",
          "name": "from",
          "type": "address"
        },
        {
          "indexed": true,
          "internalType": "address",
          "name": "to",
          "type": "address"
        },
        {
          "indexed": false,
          "internalType": "uint256[]",
          "name": "ids",
          "type": "uint256[]"
        },
        {
          "indexed": false,
          "internalType": "uint256[]",
          "name": "values",
          "type": "uint256[]"
        }
      ],
      "name": "TransferBatch",
      "type": "event"
    },
    {
      "anonymous": false,
      "inputs": [
        {
          "indexed": true,
          "internalType": "address",
          "name": "operator",
          "type": "address"
        },
        {
          "indexed": true,
          "internalType": "address",
          "name": "from",
          "type": "address"
        },
        {
          "indexed": true,
          "internalType": "address",
          "name": "to",
          "type": "address"
        },
        {
          "indexed": false,
          "internalType": "uint256",
          "name": "id",
          "type": "uint256"
        },
        {
          "indexed": false,
          "internalType": "uint256",
          "name": "value",
          "type": "uint256"
        }
      ],
      "name": "TransferSingle",
      "type": "event"
    },
    {
      "anonymous": false,
      "inputs": [
        {
          "indexed": false,
          "internalType": "string",
          "name": "value",
          "type": "string"
        },
        {
          "indexed": true,
          "internalType": "uint256",
          "name": "id",
          "type": "uint256"
        }
      ],
      "name": "URI",
      "type": "event"
    },
    {
      "anonymous": false,
      "inputs": [
        {
          "indexed": false,
          "internalType": "uint256",
          "name": "tokenId",
          "type": "uint256"
        }
      ],
      "name": "nftMinted",
      "type": "event"
    },
    {
      "inputs": [
        {
          "internalType": "address",
          "name": "account",
          "type": "address"
        },
        {
          "internalType": "uint256",
          "name": "id",
          "type": "uint256"
        }
      ],
      "name": "balanceOf",
      "outputs": [
        {
          "internalType": "uint256",
          "name": "",
          "type": "uint256"
        }
      ],
      "stateMutability": "view",
      "type": "function"
    },
    {
      "inputs": [
        {
          "internalType": "address[]",
          "name": "accounts",
          "type": "address[]"
        },
        {
          "internalType": "uint256[]",
          "name": "ids",
          "type": "uint256[]"
        }
      ],
      "name": "balanceOfBatch",
      "outputs": [
        {
          "internalType": "uint256[]",
          "name": "",
          "type": "uint256[]"
        }
      ],
      "stateMutability": "view",
      "type": "function"
    },
    {
      "inputs": [],
      "name": "createToken",
      "outputs": [
        {
          "internalType": "uint256",
          "name": "",
          "type": "uint256"
        }
      ],
      "stateMutability": "nonpayable",
      "type": "function"
    },
    {
      "inputs": [],
      "name": "getTokenId",
      "outputs": [
        {
          "internalType": "uint256",
          "name": "tokenID",
          "type": "uint256"
        }
      ],
      "stateMutability": "view",
      "type": "function"
    },
    {
      "inputs": [
        {
          "internalType": "address",
          "name": "account",
          "type": "address"
        },
        {
          "internalType": "address",
          "name": "operator",
          "type": "address"
        }
      ],
      "name": "isApprovedForAll",
      "outputs": [
        {
          "internalType": "bool",
          "name": "",
          "type": "bool"
        }
      ],
      "stateMutability": "view",
      "type": "function"
    },
    {
      "inputs": [],
      "name": "owner",
      "outputs": [
        {
          "internalType": "address",
          "name": "",
          "type": "address"
        }
      ],
      "stateMutability": "view",
      "type": "function"
    },
    {
      "inputs": [],
      "name": "renounceOwnership",
      "outputs": [],
      "stateMutability": "nonpayable",
      "type": "function"
    },
    {
      "inputs": [
        {
          "internalType": "address",
          "name": "from",
          "type": "address"
        },
        {
          "internalType": "address",
          "name": "to",
          "type": "address"
        },
        {
          "internalType": "uint256[]",
          "name": "ids",
          "type": "uint256[]"
        },
        {
          "internalType": "uint256[]",
          "name": "amounts",
          "type": "uint256[]"
        },
        {
          "internalType": "bytes",
          "name": "data",
          "type": "bytes"
        }
      ],
      "name": "safeBatchTransferFrom",
      "outputs": [],
      "stateMutability": "nonpayable",
      "type": "function"
    },
    {
      "inputs": [
        {
          "internalType": "address",
          "name": "from",
          "type": "address"
        },
        {
          "internalType": "address",
          "name": "to",
          "type": "address"
        },
        {
          "internalType": "uint256",
          "name": "id",
          "type": "uint256"
        },
        {
          "internalType": "uint256",
          "name": "amount",
          "type": "uint256"
        },
        {
          "internalType": "bytes",
          "name": "data",
          "type": "bytes"
        }
      ],
      "name": "safeTransferFrom",
      "outputs": [],
      "stateMutability": "nonpayable",
      "type": "function"
    },
    {
      "inputs": [
        {
          "internalType": "address",
          "name": "operator",
          "type": "address"
        },
        {
          "internalType": "bool",
          "name": "approved",
          "type": "bool"
        }
      ],
      "name": "setApprovalForAll",
      "outputs": [],
      "stateMutability": "nonpayable",
      "type": "function"
    },
    {
      "inputs": [
        {
          "internalType": "string",
          "name": "newuri",
          "type": "string"
        }
      ],
      "name": "setURI",
      "outputs": [],
      "stateMutability": "nonpayable",
      "type": "function"
    },
    {
      "inputs": [
        {
          "internalType": "bytes4",
          "name": "interfaceId",
          "type": "bytes4"
        }
      ],
      "name": "supportsInterface",
      "outputs": [
        {
          "internalType": "bool",
          "name": "",
          "type": "bool"
        }
      ],
      "stateMutability": "view",
      "type": "function"
    },
    {
      "inputs": [
        {
          "internalType": "address",
          "name": "newOwner",
          "type": "address"
        }
      ],
      "name": "transferOwnership",
      "outputs": [],
      "stateMutability": "nonpayable",
      "type": "function"
    },
    {
      "inputs": [
        {
          "internalType": "uint256",
          "name": "",
          "type": "uint256"
        }
      ],
      "name": "uri",
      "outputs": [
        {
          "internalType": "string",
          "name": "",
          "type": "string"
        }
      ],
      "stateMutability": "view",
      "type": "function"
    }
  ],
  "bytecode": "0x60806040523480156200001157600080fd5b5060405162001b5238038062001b5283398101604081905262000034916200019c565b6040518060600160405280603b815260200162001b17603b913962000059816200008b565b506200006533620000a4565b600580546001600160a01b0319166001600160a01b039290921691909117905562000209565b8051620000a0906002906020840190620000f6565b5050565b600380546001600160a01b038381166001600160a01b0319831681179093556040519116919082907f8be0079c531659141344cd1fd0a4f28419497f9722a3daafe3b4186f6b6457e090600090a35050565b8280546200010490620001cc565b90600052602060002090601f01602090048101928262000128576000855562000173565b82601f106200014357805160ff191683800117855562000173565b8280016001018555821562000173579182015b828111156200017357825182559160200191906001019062000156565b506200018192915062000185565b5090565b5b8082111562000181576000815560010162000186565b600060208284031215620001ae578081fd5b81516001600160a01b0381168114620001c5578182fd5b9392505050565b600181811c90821680620001e157607f821691505b602082108114156200020357634e487b7160e01b600052602260045260246000fd5b50919050565b6118fe80620002196000396000f3fe608060405234801561001057600080fd5b50600436106100e95760003560e01c8063715018a61161008c578063a22cb46511610066578063a22cb465146101d2578063e985e9c5146101e5578063f242432a14610221578063f2fde38b1461023457600080fd5b8063715018a6146101a75780638da5cb5b146101af5780639cbf9e36146101ca57600080fd5b806302fe5305116100c857806302fe53051461013f5780630e89341c146101545780632eb2c2d6146101745780634e1273f41461018757600080fd5b8062fdd58e146100ee578063010a38f51461011457806301ffc9a71461011c575b600080fd5b6101016100fc366004611340565b610247565b6040519081526020015b60405180910390f35b6101016102de565b61012f61012a366004611434565b6102f0565b604051901515815260200161010b565b61015261014d36600461146c565b610340565b005b6101676101623660046114ba565b61034c565b60405161010b919061163b565b6101526101823660046111fd565b6103e0565b61019a610195366004611369565b610477565b60405161010b91906115fa565b6101526105d9565b6003546040516001600160a01b03909116815260200161010b565b61010161063f565b6101526101e0366004611306565b6106c7565b61012f6101f33660046111cb565b6001600160a01b03918216600090815260016020908152604080832093909416825291909152205460ff1690565b61015261022f3660046112a3565b61079e565b6101526102423660046111b1565b610825565b60006001600160a01b0383166102b85760405162461bcd60e51b815260206004820152602b60248201527f455243313135353a2062616c616e636520717565727920666f7220746865207a60448201526a65726f206164647265737360a81b60648201526084015b60405180910390fd5b506000908152602081815260408083206001600160a01b03949094168352929052205490565b6000806102ea60045490565b92915050565b60006001600160e01b03198216636cdb3d1360e11b148061032157506001600160e01b031982166303a24d0760e21b145b806102ea57506301ffc9a760e01b6001600160e01b03198316146102ea565b610349816108ed565b50565b60606002805461035b90611761565b80601f016020809104026020016040519081016040528092919081815260200182805461038790611761565b80156103d45780601f106103a9576101008083540402835291602001916103d4565b820191906000526020600020905b8154815290600101906020018083116103b757829003601f168201915b50505050509050919050565b6001600160a01b0385163314806103fc57506103fc85336101f3565b6104635760405162461bcd60e51b815260206004820152603260248201527f455243313135353a207472616e736665722063616c6c6572206973206e6f74206044820152711bdddb995c881b9bdc88185c1c1c9bdd995960721b60648201526084016102af565b6104708585858585610904565b5050505050565b606081518351146104dc5760405162461bcd60e51b815260206004820152602960248201527f455243313135353a206163636f756e747320616e6420696473206c656e677468604482015268040dad2e6dac2e8c6d60bb1b60648201526084016102af565b6000835167ffffffffffffffff81111561050657634e487b7160e01b600052604160045260246000fd5b60405190808252806020026020018201604052801561052f578160200160208202803683370190505b50905060005b84518110156105d15761059685828151811061056157634e487b7160e01b600052603260045260246000fd5b602002602001015185838151811061058957634e487b7160e01b600052603260045260246000fd5b6020026020010151610247565b8282815181106105b657634e487b7160e01b600052603260045260246000fd5b60209081029190910101526105ca816117c9565b9050610535565b509392505050565b6003546001600160a01b031633146106335760405162461bcd60e51b815260206004820181905260248201527f4f776e61626c653a2063616c6c6572206973206e6f7420746865206f776e657260448201526064016102af565b61063d6000610afd565b565b600061064f600480546001019055565b600061065a60045490565b90506106783382600160405180602001604052806000815250610b4f565b60055461068f906001600160a01b031660016106c7565b6040518181527fffd68f154a856e351841a0ab55b762d44c0ab63bb8df164aced57a49d25c84499060200160405180910390a1919050565b336001600160a01b03831614156107325760405162461bcd60e51b815260206004820152602960248201527f455243313135353a2073657474696e6720617070726f76616c20737461747573604482015268103337b91039b2b63360b91b60648201526084016102af565b3360008181526001602090815260408083206001600160a01b03871680855290835292819020805460ff191686151590811790915590519081529192917f17307eab39ab6107e8899845ad3d59bd9653f200f220920489ca2b5937696c31910160405180910390a35050565b6001600160a01b0385163314806107ba57506107ba85336101f3565b6108185760405162461bcd60e51b815260206004820152602960248201527f455243313135353a2063616c6c6572206973206e6f74206f776e6572206e6f7260448201526808185c1c1c9bdd995960ba1b60648201526084016102af565b6104708585858585610c59565b6003546001600160a01b0316331461087f5760405162461bcd60e51b815260206004820181905260248201527f4f776e61626c653a2063616c6c6572206973206e6f7420746865206f776e657260448201526064016102af565b6001600160a01b0381166108e45760405162461bcd60e51b815260206004820152602660248201527f4f776e61626c653a206e6577206f776e657220697320746865207a65726f206160448201526564647265737360d01b60648201526084016102af565b61034981610afd565b8051610900906002906020840190611004565b5050565b81518351146109665760405162461bcd60e51b815260206004820152602860248201527f455243313135353a2069647320616e6420616d6f756e7473206c656e677468206044820152670dad2e6dac2e8c6d60c31b60648201526084016102af565b6001600160a01b03841661098c5760405162461bcd60e51b81526004016102af90611696565b3360005b8451811015610a8f5760008582815181106109bb57634e487b7160e01b600052603260045260246000fd5b6020026020010151905060008583815181106109e757634e487b7160e01b600052603260045260246000fd5b602090810291909101810151600084815280835260408082206001600160a01b038e168352909352919091205490915081811015610a375760405162461bcd60e51b81526004016102af906116db565b6000838152602081815260408083206001600160a01b038e8116855292528083208585039055908b16825281208054849290610a74908490611749565b9250508190555050505080610a88906117c9565b9050610990565b50846001600160a01b0316866001600160a01b0316826001600160a01b03167f4a39dc06d4c0dbc64b70af90fd698a233a518aa5d07e595d983b8c0526c8f7fb8787604051610adf92919061160d565b60405180910390a4610af5818787878787610d76565b505050505050565b600380546001600160a01b038381166001600160a01b0319831681179093556040519116919082907f8be0079c531659141344cd1fd0a4f28419497f9722a3daafe3b4186f6b6457e090600090a35050565b6001600160a01b038416610baf5760405162461bcd60e51b815260206004820152602160248201527f455243313135353a206d696e7420746f20746865207a65726f206164647265736044820152607360f81b60648201526084016102af565b33610bc981600087610bc088610ee1565b61047088610ee1565b6000848152602081815260408083206001600160a01b038916845290915281208054859290610bf9908490611749565b909155505060408051858152602081018590526001600160a01b0380881692600092918516917fc3d58168c5ae7397731d063d5bbf3d657854427343f4c083240f7aacaa2d0f62910160405180910390a461047081600087878787610f3a565b6001600160a01b038416610c7f5760405162461bcd60e51b81526004016102af90611696565b33610c8f818787610bc088610ee1565b6000848152602081815260408083206001600160a01b038a16845290915290205483811015610cd05760405162461bcd60e51b81526004016102af906116db565b6000858152602081815260408083206001600160a01b038b8116855292528083208785039055908816825281208054869290610d0d908490611749565b909155505060408051868152602081018690526001600160a01b03808916928a821692918616917fc3d58168c5ae7397731d063d5bbf3d657854427343f4c083240f7aacaa2d0f62910160405180910390a4610d6d828888888888610f3a565b50505050505050565b6001600160a01b0384163b15610af55760405163bc197c8160e01b81526001600160a01b0385169063bc197c8190610dba9089908990889088908890600401611557565b602060405180830381600087803b158015610dd457600080fd5b505af1925050508015610e04575060408051601f3d908101601f19168201909252610e0191810190611450565b60015b610eb157610e10611810565b806308c379a01415610e4a5750610e25611828565b80610e305750610e4c565b8060405162461bcd60e51b81526004016102af919061163b565b505b60405162461bcd60e51b815260206004820152603460248201527f455243313135353a207472616e7366657220746f206e6f6e20455243313135356044820152732932b1b2b4bb32b91034b6b83632b6b2b73a32b960611b60648201526084016102af565b6001600160e01b0319811663bc197c8160e01b14610d6d5760405162461bcd60e51b81526004016102af9061164e565b60408051600180825281830190925260609160009190602080830190803683370190505090508281600081518110610f2957634e487b7160e01b600052603260045260246000fd5b602090810291909101015292915050565b6001600160a01b0384163b15610af55760405163f23a6e6160e01b81526001600160a01b0385169063f23a6e6190610f7e90899089908890889088906004016115b5565b602060405180830381600087803b158015610f9857600080fd5b505af1925050508015610fc8575060408051601f3d908101601f19168201909252610fc591810190611450565b60015b610fd457610e10611810565b6001600160e01b0319811663f23a6e6160e01b14610d6d5760405162461bcd60e51b81526004016102af9061164e565b82805461101090611761565b90600052602060002090601f0160209004810192826110325760008555611078565b82601f1061104b57805160ff1916838001178555611078565b82800160010185558215611078579182015b8281111561107857825182559160200191906001019061105d565b50611084929150611088565b5090565b5b808211156110845760008155600101611089565b600067ffffffffffffffff8311156110b7576110b76117fa565b6040516110ce601f8501601f19166020018261179c565b8091508381528484840111156110e357600080fd5b83836020830137600060208583010152509392505050565b80356001600160a01b038116811461111257600080fd5b919050565b600082601f830112611127578081fd5b8135602061113482611725565b604051611141828261179c565b8381528281019150858301600585901b87018401881015611160578586fd5b855b8581101561117e57813584529284019290840190600101611162565b5090979650505050505050565b600082601f83011261119b578081fd5b6111aa8383356020850161109d565b9392505050565b6000602082840312156111c2578081fd5b6111aa826110fb565b600080604083850312156111dd578081fd5b6111e6836110fb565b91506111f4602084016110fb565b90509250929050565b600080600080600060a08688031215611214578081fd5b61121d866110fb565b945061122b602087016110fb565b9350604086013567ffffffffffffffff80821115611247578283fd5b61125389838a01611117565b94506060880135915080821115611268578283fd5b61127489838a01611117565b93506080880135915080821115611289578283fd5b506112968882890161118b565b9150509295509295909350565b600080600080600060a086880312156112ba578081fd5b6112c3866110fb565b94506112d1602087016110fb565b93506040860135925060608601359150608086013567ffffffffffffffff8111156112fa578182fd5b6112968882890161118b565b60008060408385031215611318578182fd5b611321836110fb565b915060208301358015158114611335578182fd5b809150509250929050565b60008060408385031215611352578182fd5b61135b836110fb565b946020939093013593505050565b6000806040838503121561137b578182fd5b823567ffffffffffffffff80821115611392578384fd5b818501915085601f8301126113a5578384fd5b813560206113b282611725565b6040516113bf828261179c565b8381528281019150858301600585901b870184018b10156113de578889fd5b8896505b84871015611407576113f3816110fb565b8352600196909601959183019183016113e2565b509650508601359250508082111561141d578283fd5b5061142a85828601611117565b9150509250929050565b600060208284031215611445578081fd5b81356111aa816118b2565b600060208284031215611461578081fd5b81516111aa816118b2565b60006020828403121561147d578081fd5b813567ffffffffffffffff811115611493578182fd5b8201601f810184136114a3578182fd5b6114b28482356020840161109d565b949350505050565b6000602082840312156114cb578081fd5b5035919050565b6000815180845260208085019450808401835b83811015611501578151875295820195908201906001016114e5565b509495945050505050565b60008151808452815b8181101561153157602081850181015186830182015201611515565b818111156115425782602083870101525b50601f01601f19169290920160200192915050565b6001600160a01b0386811682528516602082015260a060408201819052600090611583908301866114d2565b828103606084015261159581866114d2565b905082810360808401526115a9818561150c565b98975050505050505050565b6001600160a01b03868116825285166020820152604081018490526060810183905260a0608082018190526000906115ef9083018461150c565b979650505050505050565b6020815260006111aa60208301846114d2565b60408152600061162060408301856114d2565b828103602084015261163281856114d2565b95945050505050565b6020815260006111aa602083018461150c565b60208082526028908201527f455243313135353a204552433131353552656365697665722072656a656374656040820152676420746f6b656e7360c01b606082015260800190565b60208082526025908201527f455243313135353a207472616e7366657220746f20746865207a65726f206164604082015264647265737360d81b606082015260800190565b6020808252602a908201527f455243313135353a20696e73756666696369656e742062616c616e636520666f60408201526939103a3930b739b332b960b11b606082015260800190565b600067ffffffffffffffff82111561173f5761173f6117fa565b5060051b60200190565b6000821982111561175c5761175c6117e4565b500190565b600181811c9082168061177557607f821691505b6020821081141561179657634e487b7160e01b600052602260045260246000fd5b50919050565b601f8201601f1916810167ffffffffffffffff811182821017156117c2576117c26117fa565b6040525050565b60006000198214156117dd576117dd6117e4565b5060010190565b634e487b7160e01b600052601160045260246000fd5b634e487b7160e01b600052604160045260246000fd5b600060033d111561182557600481823e5160e01c5b90565b600060443d10156118365790565b6040516003193d81016004833e81513d67ffffffffffffffff816024840111818411171561186657505050505090565b828501915081518181111561187e5750505050505090565b843d87010160208285010111156118985750505050505090565b6118a76020828601018761179c565b509095945050505050565b6001600160e01b03198116811461034957600080fdfea26469706673582212203eae477640a84825e8c794d4a0a934059ba75b18430e728f11e928c123555ba264736f6c6343000804003368747470733a2f2f3631363034363430666161303336303031373966623939332e6d6f636b6170692e696f2f6170692f76312f6e66742f7b69647d",
  "linkReferences": {},
  "deployedLinkReferences": {}
}