{
  "_format": "hh-sol-artifact-1",
  "contractName": "NFTMarket",
  "sourceName": "contracts/Market.sol",
  "abi": [
    {
      "inputs": [],
      "stateMutability": "nonpayable",
      "type": "constructor"
    },
    {
      "anonymous": false,
      "inputs": [
        {
          "indexed": true,
          "internalType": "uint256",
          "name": "itemId",
          "type": "uint256"
        },
        {
          "indexed": true,
          "internalType": "address",
          "name": "nftContract",
          "type": "address"
        },
        {
          "indexed": true,
          "internalType": "uint256",
          "name": "tokenId",
          "type": "uint256"
        },
        {
          "indexed": false,
          "internalType": "address",
          "name": "seller",
          "type": "address"
        },
        {
          "indexed": false,
          "internalType": "address",
          "name": "owner",
          "type": "address"
        },
        {
          "indexed": false,
          "internalType": "uint256",
          "name": "price",
          "type": "uint256"
        },
        {
          "indexed": false,
          "internalType": "bool",
          "name": "sold",
          "type": "bool"
        }
      ],
      "name": "MarketItemCreated",
      "type": "event"
    },
    {
      "inputs": [
        {
          "internalType": "address",
          "name": "nftContract",
          "type": "address"
        },
        {
          "internalType": "uint256",
          "name": "tokenId",
          "type": "uint256"
        },
        {
          "internalType": "uint256",
          "name": "price",
          "type": "uint256"
        }
      ],
      "name": "createMarketItem",
      "outputs": [],
      "stateMutability": "payable",
      "type": "function"
    },
    {
      "inputs": [
        {
          "internalType": "address",
          "name": "nftContract",
          "type": "address"
        },
        {
          "internalType": "uint256",
          "name": "itemId",
          "type": "uint256"
        }
      ],
      "name": "createMarketSale",
      "outputs": [],
      "stateMutability": "payable",
      "type": "function"
    },
    {
      "inputs": [],
      "name": "fetchItemsCreated",
      "outputs": [
        {
          "components": [
            {
              "internalType": "uint256",
              "name": "itemId",
              "type": "uint256"
            },
            {
              "internalType": "address",
              "name": "nftContract",
              "type": "address"
            },
            {
              "internalType": "uint256",
              "name": "tokenId",
              "type": "uint256"
            },
            {
              "internalType": "address payable",
              "name": "seller",
              "type": "address"
            },
            {
              "internalType": "address payable",
              "name": "owner",
              "type": "address"
            },
            {
              "internalType": "uint256",
              "name": "price",
              "type": "uint256"
            },
            {
              "internalType": "bool",
              "name": "sold",
              "type": "bool"
            }
          ],
          "internalType": "struct NFTMarket.MarketItem[]",
          "name": "",
          "type": "tuple[]"
        }
      ],
      "stateMutability": "view",
      "type": "function"
    },
    {
      "inputs": [],
      "name": "fetchMarketItems",
      "outputs": [
        {
          "components": [
            {
              "internalType": "uint256",
              "name": "itemId",
              "type": "uint256"
            },
            {
              "internalType": "address",
              "name": "nftContract",
              "type": "address"
            },
            {
              "internalType": "uint256",
              "name": "tokenId",
              "type": "uint256"
            },
            {
              "internalType": "address payable",
              "name": "seller",
              "type": "address"
            },
            {
              "internalType": "address payable",
              "name": "owner",
              "type": "address"
            },
            {
              "internalType": "uint256",
              "name": "price",
              "type": "uint256"
            },
            {
              "internalType": "bool",
              "name": "sold",
              "type": "bool"
            }
          ],
          "internalType": "struct NFTMarket.MarketItem[]",
          "name": "",
          "type": "tuple[]"
        }
      ],
      "stateMutability": "view",
      "type": "function"
    },
    {
      "inputs": [],
      "name": "fetchMyNFTs",
      "outputs": [
        {
          "components": [
            {
              "internalType": "uint256",
              "name": "itemId",
              "type": "uint256"
            },
            {
              "internalType": "address",
              "name": "nftContract",
              "type": "address"
            },
            {
              "internalType": "uint256",
              "name": "tokenId",
              "type": "uint256"
            },
            {
              "internalType": "address payable",
              "name": "seller",
              "type": "address"
            },
            {
              "internalType": "address payable",
              "name": "owner",
              "type": "address"
            },
            {
              "internalType": "uint256",
              "name": "price",
              "type": "uint256"
            },
            {
              "internalType": "bool",
              "name": "sold",
              "type": "bool"
            }
          ],
          "internalType": "struct NFTMarket.MarketItem[]",
          "name": "",
          "type": "tuple[]"
        }
      ],
      "stateMutability": "view",
      "type": "function"
    },
    {
      "inputs": [],
      "name": "getListingPrice",
      "outputs": [
        {
          "internalType": "uint256",
          "name": "",
          "type": "uint256"
        }
      ],
      "stateMutability": "view",
      "type": "function"
    },
    {
      "inputs": [
        {
          "internalType": "address",
          "name": "",
          "type": "address"
        },
        {
          "internalType": "address",
          "name": "",
          "type": "address"
        },
        {
          "internalType": "uint256[]",
          "name": "",
          "type": "uint256[]"
        },
        {
          "internalType": "uint256[]",
          "name": "",
          "type": "uint256[]"
        },
        {
          "internalType": "bytes",
          "name": "",
          "type": "bytes"
        }
      ],
      "name": "onERC1155BatchReceived",
      "outputs": [
        {
          "internalType": "bytes4",
          "name": "",
          "type": "bytes4"
        }
      ],
      "stateMutability": "nonpayable",
      "type": "function"
    },
    {
      "inputs": [
        {
          "internalType": "address",
          "name": "",
          "type": "address"
        },
        {
          "internalType": "address",
          "name": "",
          "type": "address"
        },
        {
          "internalType": "uint256",
          "name": "",
          "type": "uint256"
        },
        {
          "internalType": "uint256",
          "name": "",
          "type": "uint256"
        },
        {
          "internalType": "bytes",
          "name": "",
          "type": "bytes"
        }
      ],
      "name": "onERC1155Received",
      "outputs": [
        {
          "internalType": "bytes4",
          "name": "",
          "type": "bytes4"
        }
      ],
      "stateMutability": "nonpayable",
      "type": "function"
    },
    {
      "inputs": [
        {
          "internalType": "bytes4",
          "name": "interfaceId",
          "type": "bytes4"
        }
      ],
      "name": "supportsInterface",
      "outputs": [
        {
          "internalType": "bool",
          "name": "",
          "type": "bool"
        }
      ],
      "stateMutability": "view",
      "type": "function"
    }
  ],
  "bytecode": "0x60806040526658d15e1762800060045534801561001b57600080fd5b506001600055600380546001600160a01b031916331790556110ab806100426000396000f3fe6080604052600436106100865760003560e01c806358eb2df51161005957806358eb2df514610115578063bc197c811461012a578063c23b139e1461016f578063f064c32e14610182578063f23a6e611461019757600080fd5b806301ffc9a71461008b5780630f08efe0146100c057806312e85585146100e2578063202e374014610100575b600080fd5b34801561009757600080fd5b506100ab6100a6366004610ed3565b6101c3565b60405190151581526020015b60405180910390f35b3480156100cc57600080fd5b506100d56101fa565b6040516100b79190610f3a565b3480156100ee57600080fd5b506004546040519081526020016100b7565b34801561010c57600080fd5b506100d56103a2565b610128610123366004610ea1565b610588565b005b34801561013657600080fd5b50610156610145366004610d6f565b63bc197c8160e01b95945050505050565b6040516001600160e01b031990911681526020016100b7565b61012861017d366004610e78565b610824565b34801561018e57600080fd5b506100d56109da565b3480156101a357600080fd5b506101566101b2366004610e15565b63f23a6e6160e01b95945050505050565b60006001600160e01b03198216630271189760e51b14806101f457506301ffc9a760e01b6001600160e01b03198316145b92915050565b6060600061020760015490565b9050600061021460025490565b6001546102219190611017565b90506000808267ffffffffffffffff81111561024d57634e487b7160e01b600052604160045260246000fd5b60405190808252806020026020018201604052801561028657816020015b610273610c29565b81526020019060019003908161026b5790505b50905060005b848110156103995760006005816102a4846001610fff565b81526020810191909152604001600020600401546001600160a01b031614156103875760006102d4826001610fff565b600081815260056020818152604092839020835160e0810185528154815260018201546001600160a01b0390811693820193909352600282015494810194909452600381015482166060850152600481015490911660808401529081015460a0830152600681015460ff16151560c083015285519293509185908790811061036c57634e487b7160e01b600052603260045260246000fd5b6020908102919091010152610382600186610fff565b945050505b806103918161102e565b91505061028c565b50949350505050565b606060006103af60015490565b905060008060005b838110156104125733600560006103cf846001610fff565b81526020810191909152604001600020600401546001600160a01b03161415610400576103fd600184610fff565b92505b8061040a8161102e565b9150506103b7565b5060008267ffffffffffffffff81111561043c57634e487b7160e01b600052604160045260246000fd5b60405190808252806020026020018201604052801561047557816020015b610462610c29565b81526020019060019003908161045a5790505b50905060005b84811015610399573360056000610493846001610fff565b81526020810191909152604001600020600401546001600160a01b031614156105765760006104c3826001610fff565b600081815260056020818152604092839020835160e0810185528154815260018201546001600160a01b0390811693820193909352600282015494810194909452600381015482166060850152600481015490911660808401529081015460a0830152600681015460ff16151560c083015285519293509185908790811061055b57634e487b7160e01b600052603260045260246000fd5b6020908102919091010152610571600186610fff565b945050505b806105808161102e565b91505061047b565b600260005414156105e05760405162461bcd60e51b815260206004820152601f60248201527f5265656e7472616e637947756172643a207265656e7472616e742063616c6c0060448201526064015b60405180910390fd5b6002600055806106325760405162461bcd60e51b815260206004820152601c60248201527f5072696365206d757374206265206174206c656173742031207765690000000060448201526064016105d7565b600454341461068f5760405162461bcd60e51b8152602060048201526024808201527f5072696365206d75737420626520657175616c20746f206c697374696e6720706044820152637269636560e01b60648201526084016105d7565b61069d600180546001019055565b60006106a860015490565b6040805160e0810182528281526001600160a01b0380881660208084018281528486018a8152336060870181815260006080890181815260a08a018e815260c08b018381528d8452600598899052928c90209a518b55955160018b81018054928c166001600160a01b0319938416179055955160028c0155925160038b018054918b16918516919091179055516004808b01805492909a16919093161790975592519387019390935593516006909501805495151560ff19909616959095179094559351637921219560e11b81529495509363f242432a9361079093909230928a9201610f02565b600060405180830381600087803b1580156107aa57600080fd5b505af11580156107be573d6000803e3d6000fd5b505060408051338152600060208201819052818301879052606082015290518693506001600160a01b038816925084917f045dfa01dcba2b36aba1d3dc4a874f4b0c5d2fbeb8d2c4b34a7d88c8d8f929d1919081900360800190a4505060016000555050565b600260005414156108775760405162461bcd60e51b815260206004820152601f60248201527f5265656e7472616e637947756172643a207265656e7472616e742063616c6c0060448201526064016105d7565b600260008181558281526005602081905260409091209081015491015461089d34610bc0565b6108a682610bc0565b6000838152600560205260408082206003015490516001600160a01b03909116913480156108fc02929091818181858888f193505050501580156108ee573d6000803e3d6000fd5b50604051637921219560e11b81526001600160a01b0385169063f242432a9061092290309033908690600190600401610f02565b600060405180830381600087803b15801561093c57600080fd5b505af1158015610950573d6000803e3d6000fd5b50505060008481526005602052604090206004810180546001600160a01b03191633179055600601805460ff1916600117905550610992600280546001019055565b6003546004546040516001600160a01b039092169181156108fc0291906000818181858888f193505050501580156109ce573d6000803e3d6000fd5b50506001600055505050565b606060006109e760015490565b905060008060005b83811015610a4a573360056000610a07846001610fff565b81526020810191909152604001600020600301546001600160a01b03161415610a3857610a35600184610fff565b92505b80610a428161102e565b9150506109ef565b5060008267ffffffffffffffff811115610a7457634e487b7160e01b600052604160045260246000fd5b604051908082528060200260200182016040528015610aad57816020015b610a9a610c29565b815260200190600190039081610a925790505b50905060005b84811015610399573360056000610acb846001610fff565b81526020810191909152604001600020600301546001600160a01b03161415610bae576000610afb826001610fff565b600081815260056020818152604092839020835160e0810185528154815260018201546001600160a01b0390811693820193909352600282015494810194909452600381015482166060850152600481015490911660808401529081015460a0830152600681015460ff16151560c0830152855192935091859087908110610b9357634e487b7160e01b600052603260045260246000fd5b6020908102919091010152610ba9600186610fff565b945050505b80610bb88161102e565b915050610ab3565b610c0581604051602401610bd691815260200190565b60408051601f198184030181529190526020810180516001600160e01b031663f5b1bba960e01b179052610c08565b50565b80516a636f6e736f6c652e6c6f67602083016000808483855afa5050505050565b6040805160e081018252600080825260208201819052918101829052606081018290526080810182905260a0810182905260c081019190915290565b80356001600160a01b0381168114610c7c57600080fd5b919050565b600082601f830112610c91578081fd5b8135602067ffffffffffffffff821115610cad57610cad61105f565b8160051b610cbc828201610fce565b838152828101908684018388018501891015610cd6578687fd5b8693505b85841015610cf8578035835260019390930192918401918401610cda565b50979650505050505050565b600082601f830112610d14578081fd5b813567ffffffffffffffff811115610d2e57610d2e61105f565b610d41601f8201601f1916602001610fce565b818152846020838601011115610d55578283fd5b816020850160208301379081016020019190915292915050565b600080600080600060a08688031215610d86578081fd5b610d8f86610c65565b9450610d9d60208701610c65565b9350604086013567ffffffffffffffff80821115610db9578283fd5b610dc589838a01610c81565b94506060880135915080821115610dda578283fd5b610de689838a01610c81565b93506080880135915080821115610dfb578283fd5b50610e0888828901610d04565b9150509295509295909350565b600080600080600060a08688031215610e2c578081fd5b610e3586610c65565b9450610e4360208701610c65565b93506040860135925060608601359150608086013567ffffffffffffffff811115610e6c578182fd5b610e0888828901610d04565b60008060408385031215610e8a578182fd5b610e9383610c65565b946020939093013593505050565b600080600060608486031215610eb5578283fd5b610ebe84610c65565b95602085013595506040909401359392505050565b600060208284031215610ee4578081fd5b81356001600160e01b031981168114610efb578182fd5b9392505050565b6001600160a01b0394851681529290931660208301526040820152606081019190915260a06080820181905260009082015260c00190565b602080825282518282018190526000919060409081850190868401855b82811015610fc157815180518552868101516001600160a01b039081168887015286820151878701526060808301518216908701526080808301519091169086015260a0808201519086015260c09081015115159085015260e09093019290850190600101610f57565b5091979650505050505050565b604051601f8201601f1916810167ffffffffffffffff81118282101715610ff757610ff761105f565b604052919050565b6000821982111561101257611012611049565b500190565b60008282101561102957611029611049565b500390565b600060001982141561104257611042611049565b5060010190565b634e487b7160e01b600052601160045260246000fd5b634e487b7160e01b600052604160045260246000fdfea2646970667358221220804a31a5a40714917eaee8e3e8f790ea699a4080497423cba5aeeb9f89e9eb8464736f6c63430008040033",
  "linkReferences": {},
  "deployedLinkReferences": {}
}